:020000040800F2
:100000000050002041040008790300087F03000825
:10001000850300088B03000891030008000000001E
:10002000000000000000000000000000970300082E
:10003000A303000800000000AF030008BB03000892
:10004000890400088904000889040008890400085C
:10005000890400088904000889040008890400084C
:10006000890400088904000889040008890400083C
:10007000890400088904000889040008890400082C
:10008000890400088904000889040008890400081C
:10009000890400088904000889040008890400080C
:1000A00089040008890400088904000889040008FC
:1000B00089040008890400088904000889040008EC
:1000C00089040008890400088904000889040008DC
:1000D00089040008890400088904000889040008CC
:1000E0008904000889040008890400080000000051
:1000F0000000000000000000000000000000000000
:0C01000000000000000000005FF808F1A3
:10010C0010B5054C237833B9044B13B10448AFF345
:10011C0000800123237010BD90000020000000001F
:10012C00E01F000808B5034B1BB103490348AFF3AC
:10013C00008008BD0000000094000020E01F0008B3
:10014C0080B584B002AF00F0ABFB00F06FF800F0AC
:10015C00B3F8102202212F4800F07CFA2D4800F051
:10016C004BFB4FF47A7000F0FDFB2B4B1B780133EB
:10017C00DAB2294B1A70294B1B781A46284B1B787C
:10018C001946254B1B7800930B462649264801F04F
:10019C00A7FA0346FB71FB790093234B0022002145
:1001AC001C4800F010FB1C4B1B783C2B08D11C4B43
:1001BC001B780133DAB21A4B1A70174B00221A70E3
:1001CC00174B1B783C2B0FD1134B1B783C2B0BD1B3
:1001DC00124B1B780133DAB2104B1A70104B002201
:1001EC001A700D4B00221A700C4B1B78172BB8D1C0
:1001FC000B4B1B783C2BB4D1074B1B783C2BB0D151
:10020C00064B00221A70064B00221A70024B002279
:10021C001A70A6E700000020BE000020BC000020E1
:10022C00BD000020F81F0008AC00002080B590B085
:10023C0000AF07F1180328220021184601F048FAF4
:10024C003B1D00221A605A609A60DA601A61012321
:10025C00BB614FF48033FB6100233B620123BB6223
:10026C0002237B634FF48033BB634FF4E013FB63D7
:10027C0007F11803184600F019FE0346002B01D0B5
:10028C0000F03CF80F237B600223BB600023FB6073
:10029C004FF480633B6100237B613B1D02211846B8
:1002AC0001F086F80346002B01D000F027F800BFC0
:1002BC004037BD4680BD000080B483B000AF0E4B0C
:1002CC009B690D4A43F0200393610B4B9B6903F030
:1002DC0020037B607B68084B9B69074A43F004034F
:1002EC009361054B9B6903F004033B603B6800BFC3
:1002FC000C37BD4680BC70470010024080B400AF84
:10030C0072B600BFFEE7000080B485B000AF154B9D
:10031C009B69144A43F001039361124B9B6903F0F0
:10032C000103BB60BB680F4BDB690E4A43F0805383
:10033C00D3610C4BDB6903F080537B607B680A4B09
:10034C005B68FB60FB6823F0E063FB60FB6843F0D9
:10035C000073FB60044AFB68536000BF1437BD4652
:10036C0080BC7047001002400000014080B400AF18
:10037C00FEE780B400AFFEE780B400AFFEE780B4C8
:10038C0000AFFEE780B400AFFEE780B400AF00BF63
:10039C00BD4680BC704780B400AF00BFBD4680BC7A
:1003AC00704780B400AF00BFBD4680BC704780B5BD
:1003BC0000AF00F0BBFA00BF80BD000080B586B076
:1003CC0000AF7860144A154BD31A7B617B693B6193
:1003DC00134B1B68002B02D1114B124A1A60104BA5
:1003EC001A687B6813443A699A4207D201F046F9BD
:1003FC0003460C221A604FF0FF3309E0084B1B68D0
:10040C00FB60074B1A687B681344054A1360FB6852
:10041C0018461837BD4680BD00500020000400006F
:10042C00C0000020D800002080B400AF00BFBD4643
:10043C0080BC7047FFF7F8FF0B480C490C4A0023AF
:10044C0002E0D458C4500433C4188C42F9D3094A7E
:10045C00094C002301E013600432A242FBD301F0EB
:10046C0013F9FFF76DFE704700000020900000208C
:10047C006820000890000020D8000020FEE7000053
:10048C0080B584B000AF78600D4B5B68FB6001F009
:10049C00CDF803460B4AA2FB03239B0C7A6802FBA4
:1004AC0003F37B6000BF064B5A68FB68D21A7B686B
:1004BC009A42F8D300BF00BF1037BD4680BD00BFC5
:1004CC00001000E083DE1B4380B582B000AF034612
:1004DC00FB80FB881846FFF7D3FF00BF0837BD46EB
:1004EC0080BD80B483B000AF78600B46FB707B6836
:1004FC005B68DA687B681B7A19460F238B40DB43F9
:10050C0019467B685B680A40DA607B685B68DA686E
:10051C00FB787968097A8B4019467B685B680A43DB
:10052C00DA6000BF0C37BD4680BC704780B582B026
:10053C0000AF78600B46FB707B6858697B681B8B3F
:10054C00FA78194600F09AFC00BF0837BD4680BD0A
:10055C0080B582B000AF78600B46FB707B68D868C2
:10056C007B681B8AFA78194600F088FC00BF0837B4
:10057C00BD4680BD80B586B000AF786007F108033A
:10058C0000221A605A609A60DA607B681B8BBB6031
:10059C000123FB6002237B617B685B6907F1080226
:1005AC001146184600F0E6FA7B681B8ABB607B6834
:1005BC00DB6807F108021146184600F0DBFA7B688D
:1005CC001B7A1A460F239340BB607B685B6807F16C
:1005DC0008021146184600F0CDFA00BF1837BD4688
:1005EC0080BD80B582B000AF78600B46FB701346BF
:1005FC00BB70FB7819467868FFF798FFBB781B092E
:10060C00DBB219467868FFF76CFF01217868FFF7B9
:10061C009FFF0A20FFF758FF00217868FFF798FF2B
:10062C006420FFF751FFBB7819467868FFF759FF34
:10063C0001217868FFF78CFF0A20FFF745FF0021A6
:10064C007868FFF785FF6420FFF73EFF00BF08378F
:10065C00BD4680BD80B584B000AF78600B46FB70A2
:10066C001346BB707868FFF785FF7B6800229A768B
:10067C007B684022DA767B68BA781A77BB7840338D
:10068C00DAB27B685A7700217868FFF74FFF0021B8
:10069C007868FFF75DFF4CF25030FFF715FF002331
:1006AC00FB7318E003217868FFF71BFF01217868C2
:1006BC00FFF74EFF0A20FFF707FF00217868FFF7CE
:1006CC0047FF6420FFF700FF41F29410FFF7FCFE98
:1006DC00FB7B0133FB73FB7B012BE3D90321786894
:1006EC00FFF7FFFE01217868FFF732FF0A20FFF7C2
:1006FC00EBFE00217868FFF72BFF6420FFF7E4FE88
:10070C009620FFF7E1FE02217868FFF7EAFE01214F
:10071C007868FFF71DFF0A20FFF7D6FE00217868E6
:10072C00FFF716FF6420FFF7CFFE28220021786820
:10073C00FFF757FF002300220121786800F06DF8C5
:10074C00786800F059F800BF1037BD4680BD80B501
:10075C0082B000AF78600B46FB701346BB70FB7821
:10076C007A6813449A7EBB781344DBB25BB263F0B5
:10077C007F035BB2DBB21A4600217868FFF731FFCA
:10078C0000BF0837BD4680BD80B586B000AFF860AD
:10079C00B9601346FB710023FB750BE0BB685A1C58
:1007AC00BA601B781A460121F868FFF71AFFFB7D27
:1007BC000133FB75FA7DFB799A42EFD300BF00BF82
:1007CC001837BD4680BD80B584B000AFF8607B6043
:1007DC000B46FB721346BB72BA7AFB7A1946F86861
:1007EC00FFF7B5FF3B7E1A467968F868FFF7CCFF38
:1007FC0000BF1037BD4680BD80B582B000AF7860B9
:10080C00012200217868FFF7ECFE4FF4FA60FFF745
:10081C005BFE00BF0837BD4680BD80B582B000AF1F
:10082C007860084611461A460346FB700B46BB70AF
:10083C0013467B707B6800229A77FB78002B06D0DE
:10084C007B689B7F43F00403DAB27B689A77BB78B2
:10085C00002B06D07B689B7F43F00203DAB27B68E7
:10086C009A777B78002B06D07B689B7F43F0010343
:10087C00DAB27B689A777B689B7F43F00403DAB229
:10088C007B689A777B689B7F43F00803DBB21A4640
:10089C0000217868FFF7A5FE00BF0837BD4680BD74
:1008AC0080B500AF084B1B68074A43F01003136078
:1008BC00032000F02BF90F2000F008F8FFF724FDBF
:1008CC000023184680BD00BF0020024080B582B0D6
:1008DC0000AF7860124B1A68124B1B7819464FF414
:1008EC007A73B3FBF1F3B2FBF3F3184600F035F96E
:1008FC000346002B01D001230EE07B680F2B0AD896
:10090C00002279684FF0FF3000F00BF9064A7B6843
:10091C001360002300E0012318460837BD4680BD54
:10092C0020000020280000202400002080B400AF0C
:10093C00054B1B781A46054B1B681344034A13607E
:10094C0000BFBD4680BC704728000020C4000020BA
:10095C0080B400AF024B1B681846BD4680BC704784
:10096C00C400002080B584B000AF7860FFF7F0FFC2
:10097C00B8607B68FB60FB68B3F1FF3F05D00A4BA6
:10098C001B781A46FB681344FB6000BFFFF7E0FFBF
:10099C000246BB68D31AFA689A42F7D800BF00BF68
:1009AC001037BD4680BD00BF2800002080B485B044
:1009BC0000AF78607B6803F00703FB600C4BDB68CF
:1009CC00BB60BA684FF6FF031340BB60FB681A02AA
:1009DC00BB68134343F0BF6343F40033BB60044A6A
:1009EC00BB68D36000BF1437BD4680BC704700BFE6
:1009FC0000ED00E080B400AF044BDB681B0A03F091
:100A0C0007031846BD4680BC704700BF00ED00E0F0
:100A1C0080B483B000AF03463960FB7197F907309F
:100A2C00002B0ADB3B68DAB20C4997F9073012014C
:100A3C00D2B20B4483F800230AE03B68DAB20849CF
:100A4C00FB7903F00F03043B1201D2B20B441A766C
:100A5C0000BF0C37BD4680BC704700BF00E100E012
:100A6C0000ED00E080B489B000AFF860B9607A6046
:100A7C00FB6803F00703FB61FB69C3F10703042B5D
:100A8C0028BF0423BB61FB690433062B02D9FB6925
:100A9C00033B00E000237B614FF0FF32BB6902FA9D
:100AAC0003F3DA43BB681A407B699A404FF0FF317D
:100ABC007B6901FA03F3D9437B680B401343184657
:100ACC002437BD4680BC704780B582B000AF7860DB
:100ADC007B68013BB3F1807F01D301230FE00A4A0D
:100AEC007B68013B53600F214FF0FF30FFF790FF05
:100AFC00054B00229A60044B07221A60002318460B
:100B0C000837BD4680BD00BF10E000E080B582B064
:100B1C0000AF78607868FFF749FF00BF0837BD4623
:100B2C0080BD80B586B000AF0346B9607A60FB73B8
:100B3C0000237B61FFF75EFF78617A68B96878699A
:100B4C00FFF790FF024697F90F3011461846FFF752
:100B5C005FFF00BF1837BD4680BD80B582B000AFC7
:100B6C0078607868FFF7B0FF034618460837BD4633
:100B7C0080BD000080B48BB000AF7860396000237A
:100B8C007B6200233B6269E101227B6A02FA03F378
:100B9C00FB613B681B68FA691340BB61BA69FB696E
:100BAC009A4240F058813B685B689A4A93425ED007
:100BBC00984A934275D8984A934258D0964A934291
:100BCC006FD8964A934252D0944A934269D8944A29
:100BDC0093424CD0924A934263D8924A934246D065
:100BEC00904A93425DD8122B2AD8122B59D801A2C5
:100BFC0052F823F07B0C0008550C0008670C000819
:100C0C00A90C0008AF0C0008AF0C0008AF0C0008D2
:100C1C00AF0C0008AF0C0008AF0C0008AF0C0008BC
:100C2C00AF0C0008AF0C0008AF0C0008AF0C0008AC
:100C3C00AF0C0008AF0C00085D0C0008710C00082C
:100C4C00794A934213D02CE03B68DB683B6229E085
:100C5C003B68DB6804333B6224E03B68DB680833A9
:100C6C003B621FE03B68DB680C333B621AE03B687D
:100C7C009B68002B02D104233B6213E03B689B680A
:100C8C00012B05D108233B627B68FA691A6109E0E4
:100C9C0008233B627B68FA695A6103E000233B62DC
:100CAC0000E000BFBB69FF2B01D87B6801E07B68CB
:100CBC0004337B61BB69FF2B02D87B6A9B0002E08B
:100CCC007B6A083B9B003B617B691A680F213B697F
:100CDC0001FA03F3DB431A40396A3B6901FA03F367
:100CEC001A437B691A603B685B6803F08053002BE6
:100CFC0000F0B1804D4B9B694C4A43F0010393616A
:100D0C004A4B9B6903F00103BB60BB68484A7B6A92
:100D1C009B08023352F82330FB607B6A03F0030319
:100D2C009B000F2202FA03F3DB43FA681340FB60CB
:100D3C007B68404A934213D07B683F4A93420DD064
:100D4C007B683E4A934207D07B683D4A934201D16F
:100D5C00032306E0042304E0022302E0012300E065
:100D6C0000237A6A02F0030292009340FA6813435C
:100D7C00FB602F497B6A9B080233FA6841F82320F9
:100D8C003B685B6803F48013002B06D02D4B9A68EC
:100D9C002C49BB6913438B6006E02A4B9A68BB69EC
:100DAC00DB43284913408B603B685B6803F40013FA
:100DBC00002B06D0234BDA682249BB691343CB6066
:100DCC0006E0204BDA68BB69DB431E491340CB605D
:100DDC003B685B6803F40033002B06D0194B5A6850
:100DEC001849BB6913434B6006E0164B5A68BB6944
:100DFC00DB43144913404B603B685B6803F480335E
:100E0C00002B21D00F4B1A680E49BB6913430B60A2
:100E1C0021E000BF00003210000031100000221051
:100E2C0000002110000012100000111000100240F0
:100E3C000000014000080140000C0140001001407E
:100E4C0000140140000401400B4B1A68BB69DB43E2
:100E5C00094913400B607B6A01337B623B681A685B
:100E6C007B6A22FA03F3002B7FF48EAE00BF00BF27
:100E7C002C37BD4680BC70470004014080B483B061
:100E8C0000AF78600B467B8013467B707B78002B21
:100E9C0003D07A887B681A6103E07B881A047B682C
:100EAC001A6100BF0C37BD4680BC704780B586B058
:100EBC0000AF78607B68002B01D1012372E27B6864
:100ECC001B6803F00103002B00F08780924B5B68DA
:100EDC0003F00C03042B0CD08F4B5B6803F00C035A
:100EEC00082B12D18C4B5B6803F48033B3F5803F35
:100EFC000BD1894B1B6803F40033002B6CD07B683F
:100F0C005B68002B68D101234CE27B685B68B3F50E
:100F1C00803F06D1804B1B687F4A43F480331360BB
:100F2C002EE07B685B68002B0CD17B4B1B687A4AEC
:100F3C0023F480331360784B1B68774A23F48023A7
:100F4C0013601DE07B685B68B3F5A02F0CD1724B6E
:100F5C001B68714A43F4802313606F4B1B686E4A05
:100F6C0043F4803313600BE06B4B1B686A4A23F429
:100F7C0080331360684B1B68674A23F4802313602B
:100F8C007B685B68002B13D0FFF7E2FC386108E04C
:100F9C00FFF7DEFC02463B69D31A642B01D903230D
:100FAC0000E25D4B1B6803F40033002BF0D014E01F
:100FBC00FFF7CEFC386108E0FFF7CAFC02463B693C
:100FCC00D31A642B01D90323ECE1534B1B6803F4B4
:100FDC000033002BF0D100E000BF7B681B6803F0EE
:100FEC000203002B63D04C4B5B6803F00C03002B0B
:100FFC000BD0494B5B6803F00C03082B1CD1464B00
:10100C005B6803F48033002B16D1434B1B6803F051
:10101C000203002B05D07B681B69012B01D0012337
:10102C00C0E13D4B1B6823F0F8027B685B69DB0079
:10103C00394913430B603AE07B681B69002B20D0C5
:10104C00364B01221A60FFF783FC386108E0FFF78A
:10105C007FFC02463B69D31A022B01D90323A1E181
:10106C002D4B1B6803F00203002BF0D02A4B1B689E
:10107C0023F0F8027B685B69DB00274913430B60A4
:10108C0015E0264B00221A60FFF762FC386108E07D
:10109C00FFF75EFC02463B69D31A022B01D90323EE
:1010AC0080E11D4B1B6803F00203002BF0D17B6821
:1010BC001B6803F00803002B3AD07B689B69002B5C
:1010CC0019D0174B01221A60FFF742FC386108E077
:1010DC00FFF73EFC02463B69D31A022B01D90323CE
:1010EC0060E10D4B5B6A03F00203002BF0D0012092
:1010FC0000F0A6FA1CE00A4B00221A60FFF728FC4D
:10110C0038610FE0FFF724FC02463B69D31A022B2F
:10111C0008D9032346E100BF001002400000424200
:10112C0080044242924B5B6A03F00203002BE9D12C
:10113C007B681B6803F00403002B00F0A6800023DF
:10114C00FB758B4BDB6903F08053002B0DD1884B67
:10115C00DB69874A43F08053D361854BDB6903F02D
:10116C008053BB60BB680123FB75824B1B6803F487
:10117C008073002B18D17F4B1B687E4A43F480731D
:10118C001360FFF7E5FB386108E0FFF7E1FB02466F
:10119C003B69D31A642B01D9032303E1754B1B68FC
:1011AC0003F48073002BF0D07B68DB68012B06D135
:1011BC006F4B1B6A6E4A43F0010313622DE07B6890
:1011CC00DB68002B0CD16A4B1B6A694A23F00103C4
:1011DC001362674B1B6A664A23F0040313621CE01C
:1011EC007B68DB68052B0CD1614B1B6A604A43F0B2
:1011FC00040313625E4B1B6A5D4A43F001031362E6
:10120C000BE05B4B1B6A5A4A23F001031362584BE9
:10121C001B6A574A23F0040313627B68DB68002BBC
:10122C0015D0FFF795FB38610AE0FFF791FB0246FA
:10123C003B69D31A41F28832934201D90323B1E0BE
:10124C004B4B1B6A03F00203002BEED014E0FFF7AC
:10125C007FFB38610AE0FFF77BFB02463B69D31A40
:10126C0041F28832934201D903239BE0404B1B6A25
:10127C0003F00203002BEED1FB7D012B05D13C4B7F
:10128C00DB693B4A23F08053D3617B68DB69002B1D
:10129C0000F08780364B5B6803F00C03082B61D0A1
:1012AC007B68DB69022B46D1334B00221A60FFF7B7
:1012BC004FFB386108E0FFF74BFB02463B69D31A42
:1012CC00022B01D903236DE0294B1B6803F000733B
:1012DC00002BF0D17B681B6AB3F5803F08D1244BFF
:1012EC005B6823F400327B689B68214913434B6095
:1012FC001F4B5B6823F474127B68196A7B685B6A0A
:10130C000B431B4913434B601B4B01221A60FFF725
:10131C001FFB386108E0FFF71BFB02463B69D31A41
:10132C00022B01D903233DE0114B1B6803F0007322
:10133C00002BF0D035E0104B00221A60FFF708FBB1
:10134C00386108E0FFF704FB02463B69D31A022B15
:10135C0001D9032326E0064B1B6803F00073002B16
:10136C00F0D11EE07B68DB69012B07D1012319E06A
:10137C000010024000700040600042420B4B5B6862
:10138C00FB60FB6803F480327B681B6A9A4206D1CF
:10139C00FB6803F470127B685B6A9A4201D00123EC
:1013AC0000E0002318461837BD4680BD00100240EF
:1013BC0080B584B000AF786039607B68002B01D1B8
:1013CC000123D0E06A4B1B6803F007033A689A428A
:1013DC0010D9674B1B6823F0070265493B68134320
:1013EC000B60634B1B6803F007033A689A4201D009
:1013FC000123B8E07B681B6803F00203002B20D0AC
:10140C007B681B6803F00403002B05D0594B5B6809
:10141C00584A43F4E06353607B681B6803F008038D
:10142C00002B05D0534B5B68524A43F46053536016
:10143C00504B5B6823F0F0027B689B684D4913436B
:10144C004B607B681B6803F00103002B40D07B686A
:10145C005B68012B07D1474B1B6803F40033002B4F
:10146C0015D101237FE07B685B68022B07D1414BD0
:10147C001B6803F00073002B09D1012373E03D4B73
:10148C001B6803F00203002B01D101236BE0394BE5
:10149C005B6823F003027B685B68364913434B603F
:1014AC00FFF756FAF8600AE0FFF752FA0246FB68BB
:1014BC00D31A41F28832934201D9032353E02D4BC6
:1014CC005B6803F00C027B685B689B009A42EBD173
:1014DC00274B1B6803F007033A689A4210D2244B3F
:1014EC001B6823F0070222493B6813430B60204B17
:1014FC001B6803F007033A689A4201D0012332E0DB
:10150C007B681B6803F00403002B08D0194B5B6845
:10151C0023F4E0627B68DB68164913434B607B68FD
:10152C001B6803F00803002B09D0124B5B6823F4F3
:10153C0060527B681B69DB000E4913434B6000F063
:10154C0021F802460B4B5B681B0903F00F030A4999
:10155C00CB5C22FA03F3094A1360094B1B6818464B
:10156C00FFF7B4F9002318461037BD4680BD00BF05
:10157C00002002400010024008200008200000203B
:10158C002400002080B487B000AF0023FB60002350
:10159C00BB6000237B6100237B6000233B611E4BFF
:1015AC005B68FB60FB6803F00C03042B02D0082B78
:1015BC0003D027E0194B3B6127E0FB689B0C03F041
:1015CC000F03174AD35C7B60FB6803F48033002B5A
:1015DC0010D0114B5B685B0C03F00103114AD35C18
:1015EC00BB607B680D4A03FB02F2BB68B2FBF3F3F2
:1015FC007B6104E07B680C4A02FB03F37B617B6933
:10160C003B6102E0054B3B6100BF3B6918461C3750
:10161C00BD4680BC704700BF0010024000127A002B
:10162C00182000082820000800093D0080B400AFF5
:10163C00024B1B681846BD4680BC7047200000203A
:10164C0080B485B000AF78600A4B1B680A4AA2FBD5
:10165C0003235B0A7A6802FB03F3FB6000BFFB68A1
:10166C005A1EFA60002BF9D100BF00BF1437BD46DB
:10167C0080BC704720000020D34D6210014B1868CD
:10168C00704700BF2C00002070B500260C4D0D4C8F
:10169C00641BA410A64209D100F09CFC00260A4D44
:1016AC000A4C641BA410A64205D170BD55F8043B2E
:1016BC0098470136EEE755F8043B98470136F2E7B8
:1016CC0060200008602000086020000864200008EA
:1016DC0003460244934200D1704703F8011BF9E71B
:1016EC000EB46FF0004100B59CB01DAB029006909B
:1016FC00079104910848094953F8042B0591006897
:10170C0002A9019300F068F80022029B1A701CB029
:10171C005DF804EB03B070472C0000200802FFFFBB
:10172C002DE9F0478E6882469E420C4690461F4635
:10173C0038D88A8912F4906F32D025680969013340
:10174C00A5EB010965694B4405EB450505EBD57522
:10175C006D109D4238BF1D46530531D5294600F00A
:10176C006FFB064650B90C234FF0FF30CAF800301F
:10177C00A38943F04003A381BDE8F0874A46216961
:10178C0000F0CEFAA38923F4906343F08003A38185
:10179C0026614E4426603E466561A5EB0905A560B1
:1017AC00BE4200D93E4632464146206800F0C6FA99
:1017BC00A36800209B1BA360236833442360DBE7F2
:1017CC002A4600F0B1FB06460028E1D150462169BB
:1017DC0000F0CEFAC7E700002DE9F04F98468B8950
:1017EC0007461B060D4614469DB00ED50B6963B912
:1017FC00402100F025FB2860286120B90C233B60B8
:10180C004FF0FF30D1E040236B610023099320237C
:10181C008DF8293030234FF00109CDF80C80DFF81A
:10182C00A4818DF82A3023469A4613F8012B0AB16D
:10183C00252AF9D1BAEB040B0BD05B46224629467C
:10184C003846FFF76DFF013000F0AA80099A5A4420
:10185C0009929AF80030002B00F0A28000234FF080
:10186C00FF32CDE905230AF1010A049307938DF8A1
:10187C0053301A935446052214F8011B514800F0BA
:10188C0041FA049AD8B9D00644BF20238DF85330BE
:10189C00110744BF2B238DF853309AF800302A2BB4
:1018AC0015D0544600204FF00A0C079A214611F827
:1018BC00013B303B092B4ED9B0B1079214E0A0EBA1
:1018CC00080309FA03F31343A2460493D2E7039BDC
:1018DC00191D1B680391002BBBBF5B4242F0020237
:1018EC0007930793B8BF049223782E2B0CD16378FF
:1018FC002A2B35D1039B02341A1D1B680392002B33
:10190C00B8BF4FF0FF330593DFF8BCA0032250465D
:10191C00217800F0F7F940B14023A0EB0A0003FA5C
:10192C0000F0049B01340343049314F8011B0622BA
:10193C0026488DF8281000F0E5F9002838D0244B03
:10194C001BBB039B073323F0070308330393099B4B
:10195C003344099367E70C4601200CFB0232A5E7E0
:10196C0000234FF00A0C194601340593204610F859
:10197C00012B303A092A03D9002BC5D00591C3E7B6
:10198C00044601230CFB0121F0E703AB00932A462C
:10199C003846104B04A9AFF30080421C0646D6D142
:1019AC00AB895B063FF52CAF09981DB0BDE8F08FF5
:1019BC0003AB00932A463846064B04A900F07CF88A
:1019CC00EBE700BF2A200008302000083420000874
:1019DC00000000002D1700082DE9F0471646994627
:1019EC008A680B6907469342B8BF1346336091F877
:1019FC0043200C46DDF820800AB1013333602368A4
:101A0C00990642BF336802333360256815F006052A
:101A1C0006D104F1190AE36832689B1AAB4228DC40
:101A2C0094F84320131E226818BF012392062DD46C
:101A3C004946384604F14302C047013020D02368A0
:101A4C00E56803F00603042B18BF002532684FF03D
:101A5C000006A36808BFAD1A226908BF25EAE57520
:101A6C009342C4BF9B1AED181A34B5421AD1002008
:101A7C0008E00123524649463846C047013003D19D
:101A8C004FF0FF30BDE8F0870135C4E73020E11896
:101A9C0081F843005A1C94F845102244023382F812
:101AAC004310C5E70123224649463846C04701305A
:101ABC00E6D00136D9E700002DE9FF470F7E9146AD
:101ACC00782F80460C469A460C9D01F1430207D8AC
:101ADC00622F0AD8002F00F0D980582F00F0A48074
:101AEC0004F1420584F842703AE0A7F16303152B28
:101AFC00F6D801A151F823F05D1B0008711B0008FA
:101B0C00ED1A0008ED1A0008ED1A0008ED1A00088D
:101B1C00711B0008ED1A0008ED1A0008ED1A0008F8
:101B2C00ED1A00087F1C0008A11B0008611C0008AE
:101B3C00ED1A0008ED1A0008A11C0008ED1A0008A7
:101B4C00A11B0008ED1A0008ED1A0008691C00081A
:101B5C002B681A1D1B682A6004F1420584F8423078
:101B6C000123A4E020682968060601F104030AD5C4
:101B7C000E682B60002E03DA2D23764284F8433056
:101B8C000A235E4819E00E6810F0400F2B6018BF56
:101B9C0036B2EFE72B682068191D2960010601D5C4
:101BAC001E6802E04606FBD51E886F2F0CBF08236B
:101BBC000A235248002184F843106568002DA8BF01
:101BCC002168A560A4BF21F0040121600EB9002D8D
:101BDC004DD01546B6FBF3F103FB1167C75D05F855
:101BEC00017D3746BB420E46F4D9082B0BD1236836
:101BFC00DE0708D5236961689942DEBF302305F8FA
:101C0C00013C05F1FF35521B22614B4621464046F3
:101C1C00CDF800A003AAFFF7DFFE01304CD14FF046
:101C2C00FF3004B0BDE8F087344881F8457029686E
:101C3C00236851F8046B29601D0614D5DF0744BFD7
:101C4C0043F0200323601EB9236823F02003236094
:101C5C001023AFE7236843F0200323607823284840
:101C6C0084F84530E3E7590648BFB6B2E6E71546B7
:101C7C00BBE72B682668181D6169286035061B6850
:101C8C0001D5196002E07006FBD5198000231546BA
:101C9C002361BAE72B6800211A1D2A601D6862684F
:101CAC00284600F02FF808B1401B60606368236180
:101CBC00002384F84330A8E72A4649464046236966
:101CCC00D0470130ABD023689B0713D4E068039B4B
:101CDC009842B8BF1846A4E701233246494640460D
:101CEC00D04701309BD00135E36803995B1AAB42B6
:101CFC00F2DCEBE7002504F11906F5E73B200008C0
:101D0C004C200008034610B5C9B202449342184651
:101D1C0001D1002003E0047801338C42F6D110BDD0
:101D2C000A44914200F1FF3300D1704710B511F80D
:101D3C00014B914203F8014FF9D110BD884210B507
:101D4C0001EB020402D98442234607D8431EA14268
:101D5C0008D011F8012B03F8012FF8E701460244D3
:101D6C008A4200D110BD13F8014D02F8014DF7E77E
:101D7C0038B50546002940D051F8043C0C1F002B07
:101D8C00B8BFE41800F010F91C4A136833B963604B
:101D9C0014602846BDE8384000F00CB9A34208D9BD
:101DAC00206821188B4201BF19685B6809182160F3
:101DBC00EDE71A465B680BB1A342FAD911685018CB
:101DCC00A0420BD120680144501883421160E0D12D
:101DDC0018685B68014411605360DAE702D90C2380
:101DEC002B60D6E7206821188B4201BF19685B680D
:101DFC000918216063605460CBE738BDC80000202F
:101E0C0070B50E4E0C463168054611B900F0BCF8A1
:101E1C0030602146284600F0B7F8431C0AD0C41C99
:101E2C0024F00304A04207D0211A284600F0ACF895
:101E3C00013001D14FF0FF34204670BDCC000020A2
:101E4C002DE9F041CD1C25F0030508350C2D38BFCC
:101E5C000C25002D074601DBA94205D90C230026D1
:101E6C003B603046BDE8F0812E4E00F09DF83368A3
:101E7C001C4634BB29463846FFF7C2FF431C0446B8
:101E8C004DD134682646002E40D123683146384661
:101E9C0004EB030800F078F880453AD1216803354B
:101EAC006D1A25F0030508350C2D38BF0C25384666
:101EBC002946FFF7A5FF01302BD023682B44236064
:101ECC000EE02268521B1ED40B2A16D96119A342AC
:101EDC00256018BF5960636808BF316062514B6060
:101EEC00384604F10B0600F065F826F00706231DB2
:101EFC00F21AB6D09B1BA350B3E76268A3420CBF87
:101F0C0032605A60ECE723466468B2E73446766880
:101F1C00B9E70C2338463B6000F04CF8A1E725608C
:101F2C00DEE700BFC80000202DE9F04180461446D2
:101F3C000E4621B91146BDE8F041FFF781BF2AB921
:101F4C00FFF716FF25462846BDE8F08100F038F86B
:101F5C008442074602D8B4EB500F12D821464046B3
:101F6C00FFF76EFF05460028EDD0BC4222463146F5
:101F7C0028BF3A46FFF7D4FE31464046FFF7F8FE3D
:101F8C00E1E73546DFE7000038B50023054D044690
:101F9C0008462B60FEF712FA431C02D12B6803B1E2
:101FAC00236038BDD0000020014800F011B800BFFC
:101FBC00D4000020014800F00CB800BFD400002071
:101FCC0051F8043C181F002BBCBF0B58C0187047AD
:101FDC0070477047F8B500BFF8BC08BC9E46704708
:0C1FEC00F8B500BFF8BC08BC9E4670476A
:101FF800253032643A253032643A253032640000A4
:1020080000000000000000000102030406070809A0
:1020180002030405060708090A0B0C0D0E0F101021
:102028000102232D302B2000686C4C006566674543
:102038004647003031323334353637383941424338
:1020480044454600303132333435363738396162E9
:082058006364656600000000EE
:042060003101000842
:042064000D01000862
:1020680000000000000801400000000000080140D6
:1020780020000000000801401000000000000000DF
:102088000024F400100000000100000030000020CF
:102098000000000000000000000000000000000038
:1020A8000000000000000000000000000000000028
:1020B8000000000000000000000000000000000018
:1020C8000000000000000000000000000000000008
:1020D80000000000000000000000000000000000F8
:1020E80000000000000000000000000000000000E8
:0400000508000441AA
:00000001FF
